{
  "_format": "hh-sol-artifact-1",
  "contractName": "ToDoList",
  "sourceName": "contracts/ToDoList.sol",
  "abi": [
    {
      "inputs": [
        {
          "internalType": "string",
          "name": "_task",
          "type": "string"
        }
      ],
      "name": "addTask",
      "outputs": [],
      "stateMutability": "nonpayable",
      "type": "function"
    },
    {
      "inputs": [
        {
          "internalType": "uint256",
          "name": "_taskIndex",
          "type": "uint256"
        }
      ],
      "name": "deleteTask",
      "outputs": [],
      "stateMutability": "nonpayable",
      "type": "function"
    },
    {
      "inputs": [],
      "name": "getTaskCount",
      "outputs": [
        {
          "internalType": "uint256",
          "name": "",
          "type": "uint256"
        }
      ],
      "stateMutability": "view",
      "type": "function"
    },
    {
      "inputs": [
        {
          "internalType": "uint256",
          "name": "_taskIndex",
          "type": "uint256"
        }
      ],
      "name": "readTask",
      "outputs": [
        {
          "components": [
            {
              "internalType": "string",
              "name": "task",
              "type": "string"
            },
            {
              "internalType": "bool",
              "name": "isDone",
              "type": "bool"
            }
          ],
          "internalType": "struct ToDoList.Task",
          "name": "",
          "type": "tuple"
        }
      ],
      "stateMutability": "view",
      "type": "function"
    },
    {
      "inputs": [
        {
          "internalType": "uint256",
          "name": "_taskIndex",
          "type": "uint256"
        },
        {
          "internalType": "bool",
          "name": "_status",
          "type": "bool"
        }
      ],
      "name": "updateTask",
      "outputs": [],
      "stateMutability": "nonpayable",
      "type": "function"
    }
  ],
  "bytecode": "0x608060405234801561001057600080fd5b50610c4f806100206000396000f3fe608060405234801561001057600080fd5b50600436106100575760003560e01c8063560f31921461005c5780635e1bf4a1146100785780636723856214610094578063ab755faf146100b0578063c17a340e146100e0575b600080fd5b6100766004803603810190610071919061065e565b6100fe565b005b610092600480360381019061008d91906106c3565b6101ae565b005b6100ae60048036038101906100a99190610768565b610253565b005b6100ca60048036038101906100c5919061065e565b61038e565b6040516100d79190610891565b60405180910390f35b6100e861051d565b6040516100f591906108c2565b60405180910390f35b610112675c86f61dad8a728a60c01b6105a2565b6101266726ef9a82d04fc0f760c01b6105a2565b6000803373ffffffffffffffffffffffffffffffffffffffff1673ffffffffffffffffffffffffffffffffffffffff1681526020019081526020016000208181548110610176576101756108dd565b5b90600052602060002090600202016000808201600061019591906105a5565b6001820160006101000a81549060ff0219169055505050565b6101c267ec69cd75b5571e5960c01b6105a2565b6101d6671ba7c5da562dabaa60c01b6105a2565b806000803373ffffffffffffffffffffffffffffffffffffffff1673ffffffffffffffffffffffffffffffffffffffff1681526020019081526020016000208381548110610227576102266108dd565b5b906000526020600020906002020160010160006101000a81548160ff0219169083151502179055505050565b610267672b37c5fefcda1c0460c01b6105a2565b61027b67e371ac21c398f64b60c01b6105a2565b61028f67d12fa6b1aeec068060c01b6105a2565b6000803373ffffffffffffffffffffffffffffffffffffffff1673ffffffffffffffffffffffffffffffffffffffff168152602001908152602001600020604051806040016040528084848080601f016020809104026020016040519081016040528093929190818152602001838380828437600081840152601f19601f82011690508083019250505050505050815260200160001515815250908060018154018082558091505060019003906000526020600020906002020160009091909190915060008201518160000190816103679190610b47565b5060208201518160010160006101000a81548160ff02191690831515021790555050505050565b6103966105e5565b6103aa6738ea5ee09326205b60c01b6105a2565b6103be67141c79c38174922460c01b6105a2565b6103d26797bac7e53d03e18c60c01b6105a2565b60008060003373ffffffffffffffffffffffffffffffffffffffff1673ffffffffffffffffffffffffffffffffffffffff1681526020019081526020016000208381548110610424576104236108dd565b5b9060005260206000209060020201905061044867e5ff0b7ec91423fb60c01b6105a2565b61045c6745699940fe2810b660c01b6105a2565b806040518060400160405290816000820180546104789061096a565b80601f01602080910402602001604051908101604052809291908181526020018280546104a49061096a565b80156104f15780601f106104c6576101008083540402835291602001916104f1565b820191906000526020600020905b8154815290600101906020018083116104d457829003601f168201915b505050505081526020016001820160009054906101000a900460ff161515151581525050915050919050565b600061053367cacc73204e48209b60c01b6105a2565b610547677a3d66d2108944a960c01b6105a2565b61055b67d011cc1542a4d88860c01b6105a2565b6000803373ffffffffffffffffffffffffffffffffffffffff1673ffffffffffffffffffffffffffffffffffffffff16815260200190815260200160002080549050905090565b50565b5080546105b19061096a565b6000825580601f106105c357506105e2565b601f0160209004906000526020600020908101906105e19190610601565b5b50565b6040518060400160405280606081526020016000151581525090565b5b8082111561061a576000816000905550600101610602565b5090565b600080fd5b600080fd5b6000819050919050565b61063b81610628565b811461064657600080fd5b50565b60008135905061065881610632565b92915050565b6000602082840312156106745761067361061e565b5b600061068284828501610649565b91505092915050565b60008115159050919050565b6106a08161068b565b81146106ab57600080fd5b50565b6000813590506106bd81610697565b92915050565b600080604083850312156106da576106d961061e565b5b60006106e885828601610649565b92505060206106f9858286016106ae565b9150509250929050565b600080fd5b600080fd5b600080fd5b60008083601f84011261072857610727610703565b5b8235905067ffffffffffffffff81111561074557610744610708565b5b6020830191508360018202830111156107615761076061070d565b5b9250929050565b6000806020838503121561077f5761077e61061e565b5b600083013567ffffffffffffffff81111561079d5761079c610623565b5b6107a985828601610712565b92509250509250929050565b600081519050919050565b600082825260208201905092915050565b60005b838110156107ef5780820151818401526020810190506107d4565b60008484015250505050565b6000601f19601f8301169050919050565b6000610817826107b5565b61082181856107c0565b93506108318185602086016107d1565b61083a816107fb565b840191505092915050565b61084e8161068b565b82525050565b60006040830160008301518482036000860152610871828261080c565b91505060208301516108866020860182610845565b508091505092915050565b600060208201905081810360008301526108ab8184610854565b905092915050565b6108bc81610628565b82525050565b60006020820190506108d760008301846108b3565b92915050565b7f4e487b7100000000000000000000000000000000000000000000000000000000600052603260045260246000fd5b7f4e487b7100000000000000000000000000000000000000000000000000000000600052604160045260246000fd5b7f4e487b7100000000000000000000000000000000000000000000000000000000600052602260045260246000fd5b6000600282049050600182168061098257607f821691505b6020821081036109955761099461093b565b5b50919050565b60008190508160005260206000209050919050565b60006020601f8301049050919050565b600082821b905092915050565b6000600883026109fd7fffffffffffffffffffffffffffffffffffffffffffffffffffffffffffffffff826109c0565b610a0786836109c0565b95508019841693508086168417925050509392505050565b6000819050919050565b6000610a44610a3f610a3a84610628565b610a1f565b610628565b9050919050565b6000819050919050565b610a5e83610a29565b610a72610a6a82610a4b565b8484546109cd565b825550505050565b600090565b610a87610a7a565b610a92818484610a55565b505050565b5b81811015610ab657610aab600082610a7f565b600181019050610a98565b5050565b601f821115610afb57610acc8161099b565b610ad5846109b0565b81016020851015610ae4578190505b610af8610af0856109b0565b830182610a97565b50505b505050565b600082821c905092915050565b6000610b1e60001984600802610b00565b1980831691505092915050565b6000610b378383610b0d565b9150826002028217905092915050565b610b50826107b5565b67ffffffffffffffff811115610b6957610b6861090c565b5b610b73825461096a565b610b7e828285610aba565b600060209050601f831160018114610bb15760008415610b9f578287015190505b610ba98582610b2b565b865550610c11565b601f198416610bbf8661099b565b60005b82811015610be757848901518255600182019150602085019450602081019050610bc2565b86831015610c045784890151610c00601f891682610b0d565b8355505b6001600288020188555050505b50505050505056fea2646970667358221220c108cb56711766b416d03fe149e98a9f7a63a556814be4bdb964475375a103e164736f6c63430008110033",
  "linkReferences": {},
  "deployedLinkReferences": {}
}